{
  "_format": "hh-sol-artifact-1",
  "contractName": "HealthData",
  "sourceName": "contracts/HealthData.sol",
  "abi": [
    {
      "inputs": [],
      "stateMutability": "nonpayable",
      "type": "constructor"
    },
    {
      "anonymous": false,
      "inputs": [
        {
          "indexed": false,
          "internalType": "uint256",
          "name": "count",
          "type": "uint256"
        }
      ],
      "name": "DebugCount",
      "type": "event"
    },
    {
      "anonymous": false,
      "inputs": [
        {
          "indexed": false,
          "internalType": "uint256",
          "name": "id",
          "type": "uint256"
        },
        {
          "indexed": false,
          "internalType": "string",
          "name": "name",
          "type": "string"
        },
        {
          "indexed": false,
          "internalType": "string",
          "name": "info",
          "type": "string"
        }
      ],
      "name": "DebugRecordAdded",
      "type": "event"
    },
    {
      "anonymous": false,
      "inputs": [
        {
          "indexed": true,
          "internalType": "uint256",
          "name": "id",
          "type": "uint256"
        },
        {
          "indexed": false,
          "internalType": "string",
          "name": "patientName",
          "type": "string"
        },
        {
          "indexed": false,
          "internalType": "string",
          "name": "healthInfo",
          "type": "string"
        }
      ],
      "name": "RecordAdded",
      "type": "event"
    },
    {
      "inputs": [
        {
          "internalType": "string",
          "name": "_patientName",
          "type": "string"
        },
        {
          "internalType": "string",
          "name": "_healthInfo",
          "type": "string"
        }
      ],
      "name": "addRecord",
      "outputs": [
        {
          "internalType": "uint256",
          "name": "",
          "type": "uint256"
        }
      ],
      "stateMutability": "nonpayable",
      "type": "function"
    },
    {
      "inputs": [
        {
          "internalType": "uint256",
          "name": "_recordId",
          "type": "uint256"
        }
      ],
      "name": "getRecord",
      "outputs": [
        {
          "components": [
            {
              "internalType": "uint256",
              "name": "id",
              "type": "uint256"
            },
            {
              "internalType": "string",
              "name": "patientName",
              "type": "string"
            },
            {
              "internalType": "string",
              "name": "healthInfo",
              "type": "string"
            }
          ],
          "internalType": "struct HealthData.Record",
          "name": "",
          "type": "tuple"
        }
      ],
      "stateMutability": "view",
      "type": "function"
    },
    {
      "inputs": [
        {
          "internalType": "uint256",
          "name": "",
          "type": "uint256"
        }
      ],
      "name": "records",
      "outputs": [
        {
          "internalType": "uint256",
          "name": "id",
          "type": "uint256"
        },
        {
          "internalType": "string",
          "name": "patientName",
          "type": "string"
        },
        {
          "internalType": "string",
          "name": "healthInfo",
          "type": "string"
        }
      ],
      "stateMutability": "view",
      "type": "function"
    },
    {
      "inputs": [],
      "name": "recordsCount",
      "outputs": [
        {
          "internalType": "uint256",
          "name": "",
          "type": "uint256"
        }
      ],
      "stateMutability": "view",
      "type": "function"
    }
  ],
  "bytecode": "0x608060405234801561001057600080fd5b506000600181905550610b51806100286000396000f3fe608060405234801561001057600080fd5b506004361061004c5760003560e01c806303e9e609146100515780633446106714610081578063c9596248146100b3578063eb3dbf83146100e3575b600080fd5b61006b600480360381019061006691906106e8565b610101565b604051610078919061088f565b60405180910390f35b61009b600480360381019061009691906106e8565b6102ac565b6040516100aa939291906108cc565b60405180910390f35b6100cd60048036038101906100c8919061067c565b6103e6565b6040516100da91906108b1565b60405180910390f35b6100eb610535565b6040516100f891906108b1565b60405180910390f35b61010961053b565b60008211801561011b57506001548211155b61015a576040517f08c379a00000000000000000000000000000000000000000000000000000000081526004016101519061086f565b60405180910390fd5b60008083815260200190815260200160002060405180606001604052908160008201548152602001600182018054610191906109eb565b80601f01602080910402602001604051908101604052809291908181526020018280546101bd906109eb565b801561020a5780601f106101df5761010080835404028352916020019161020a565b820191906000526020600020905b8154815290600101906020018083116101ed57829003601f168201915b50505050508152602001600282018054610223906109eb565b80601f016020809104026020016040519081016040528092919081815260200182805461024f906109eb565b801561029c5780601f106102715761010080835404028352916020019161029c565b820191906000526020600020905b81548152906001019060200180831161027f57829003601f168201915b5050505050815250509050919050565b60006020528060005260406000206000915090508060000154908060010180546102d5906109eb565b80601f0160208091040260200160405190810160405280929190818152602001828054610301906109eb565b801561034e5780601f106103235761010080835404028352916020019161034e565b820191906000526020600020905b81548152906001019060200180831161033157829003601f168201915b505050505090806002018054610363906109eb565b80601f016020809104026020016040519081016040528092919081815260200182805461038f906109eb565b80156103dc5780601f106103b1576101008083540402835291602001916103dc565b820191906000526020600020905b8154815290600101906020018083116103bf57829003601f168201915b5050505050905083565b6000600160008154809291906103fb90610a1d565b91905055506040518060600160405280600154815260200184815260200183815250600080600154815260200190815260200160002060008201518160000155602082015181600101908051906020019061045792919061055c565b50604082015181600201908051906020019061047492919061055c565b509050506001547fc29d1ba20d58a36722c2045fecd6e6cf341aefd3ac1bb297f6e253023a13b67484846040516104ac929190610838565b60405180910390a27fc340bc2aef88d0abf051a1cbe6c2eefa38abaa096e4c4efa286dd582bc42aede6001546040516104e591906108b1565b60405180910390a17fc2c18f603438a027104e46c2143d04e8b44c6e26282c2aad24476a0ce601ede06001548484604051610522939291906108cc565b60405180910390a1600154905092915050565b60015481565b60405180606001604052806000815260200160608152602001606081525090565b828054610568906109eb565b90600052602060002090601f01602090048101928261058a57600085556105d1565b82601f106105a357805160ff19168380011785556105d1565b828001600101855582156105d1579182015b828111156105d05782518255916020019190600101906105b5565b5b5090506105de91906105e2565b5090565b5b808211156105fb5760008160009055506001016105e3565b5090565b600061061261060d84610942565b610911565b90508281526020810184848401111561062a57600080fd5b6106358482856109a9565b509392505050565b600082601f83011261064e57600080fd5b813561065e8482602086016105ff565b91505092915050565b60008135905061067681610b04565b92915050565b6000806040838503121561068f57600080fd5b600083013567ffffffffffffffff8111156106a957600080fd5b6106b58582860161063d565b925050602083013567ffffffffffffffff8111156106d257600080fd5b6106de8582860161063d565b9150509250929050565b6000602082840312156106fa57600080fd5b600061070884828501610667565b91505092915050565b600061071c82610972565b610726818561097d565b93506107368185602086016109b8565b61073f81610af3565b840191505092915050565b600061075582610972565b61075f818561098e565b935061076f8185602086016109b8565b61077881610af3565b840191505092915050565b600061079060158361098e565b91507f5265636f726420646f6573206e6f7420657869737400000000000000000000006000830152602082019050919050565b60006060830160008301516107db600086018261081a565b50602083015184820360208601526107f38282610711565b9150506040830151848203604086015261080d8282610711565b9150508091505092915050565b6108238161099f565b82525050565b6108328161099f565b82525050565b60006040820190508181036000830152610852818561074a565b90508181036020830152610866818461074a565b90509392505050565b6000602082019050818103600083015261088881610783565b9050919050565b600060208201905081810360008301526108a981846107c3565b905092915050565b60006020820190506108c66000830184610829565b92915050565b60006060820190506108e16000830186610829565b81810360208301526108f3818561074a565b90508181036040830152610907818461074a565b9050949350505050565b6000604051905081810181811067ffffffffffffffff8211171561093857610937610ac4565b5b8060405250919050565b600067ffffffffffffffff82111561095d5761095c610ac4565b5b601f19601f8301169050602081019050919050565b600081519050919050565b600082825260208201905092915050565b600082825260208201905092915050565b6000819050919050565b82818337600083830152505050565b60005b838110156109d65780820151818401526020810190506109bb565b838111156109e5576000848401525b50505050565b60006002820490506001821680610a0357607f821691505b60208210811415610a1757610a16610a95565b5b50919050565b6000610a288261099f565b91507fffffffffffffffffffffffffffffffffffffffffffffffffffffffffffffffff821415610a5b57610a5a610a66565b5b600182019050919050565b7f4e487b7100000000000000000000000000000000000000000000000000000000600052601160045260246000fd5b7f4e487b7100000000000000000000000000000000000000000000000000000000600052602260045260246000fd5b7f4e487b7100000000000000000000000000000000000000000000000000000000600052604160045260246000fd5b6000601f19601f8301169050919050565b610b0d8161099f565b8114610b1857600080fd5b5056fea264697066735822122089d315286c4e7ba2f11ce4d6b46df3b81a7679dcf91155c6152b0bc059f4638a64736f6c63430008000033",
  "linkReferences": {},
  "deployedLinkReferences": {}
}